:020000040800F2
:10000000D82800207D0F0008CD020008CF0200088C
:10001000D3020008D7020008DB020008000000003D
:10002000000000000000000000000000DF020008E7
:10003000E102000800000000E3020008E5020008F9
:10004000970F0008970F0008970F0008970F0008F8
:10005000970F0008970F0008970F0008970F0008E8
:10006000970F0008970F0008970F0008970F0008D8
:10007000970F0008970F0008970F0008970F0008C8
:10008000970F0008970F0008970F0008970F0008B8
:10009000970F0008970F0008970F0008970F0008A8
:1000A000970F0008970F0008970F0008970F000898
:1000B000970F0008970F0008F50B0008970F00082E
:1000C000970F0008970F0008970F0008970F000878
:1000D000970F0008F30E0008A5070008970F000807
:1000E000970F0008970F0008970F0008970F000858
:1000F000970F0008970F0008970F0008970F000848
:10010000970F0008970F0008970F0008970F000837
:10011000970F0008970F0008970F0008110C0008B0
:10012000970F0008970F0008970F0008970F000817
:1001300000F002F800F03FF80AA090E8000C8244BA
:100140008344AAF10107DA4501D100F034F8AFF297
:10015000090EBAE80F0013F0010F18BFFB1A43F0A5
:1001600001031847CC2D0000EC2D0000103A24BFED
:1001700078C878C1FAD8520724BF30C830C144BF0C
:1001800004680C607047000000230024002500264E
:10019000103A28BF78C1FBD8520728BF30C148BFEA
:1001A0000B607047642902F03D84002070471FB542
:1001B0001FBD10B510BD02F083FD1146FFF7F7FF1C
:1001C00000F008F802F0A1FD03B4FFF7F2FF03BC52
:1001D00000F034FE8CB000F0F6F800F0C5FD4FF4EE
:1001E000A06000F0EBFE00F095F900F06DF900F072
:1001F000AFF900F019FA4FF4165000F02EFE41F25C
:10020000883000F093FA45E000F07AFD224908605A
:1002100000F072FD2149086000F075FD204908607A
:1002200000F074FD1F4908601F4800680968884293
:1002300030D01C48006800901948036817480268CD
:100240001548016819A002F0B9FB00201C4908609C
:1002500015E01B49087800F04BFD02A9184A126806
:1002600041F8220002A8164A126850F8221015A080
:1002700002F0A4FB12480068401C114908601048B5
:1002800000680828E5DB10A002F098FB054800682C
:1002900005490860B8E700000000002010000020B9
:1002A00004000020080000200C0000202533642CEE
:1002B0002533642C2533642C2533640A00000000A8
:1002C00014000020253864000A000000704700BFB9
:1002D000FEE700BFFEE700BFFEE700BFFEE7704796
:1002E00070477047704700000CB5002001900090E7
:1002F0006C48006840F480306A49086000BF694873
:10030000006800F4003000900198401C01900098B3
:1003100018B90198B0F5A06FF1D16248006800F4F7
:10032000003010B10120009001E000200090009802
:10033000012843D15C48006840F010005A49086029
:100340000846006820F0030008600846006840F096
:1003500002000860534840685249486008464068B7
:1003600048600846406840F480604860084640683D
:1003700020F47C1048600846406840F4E81048606B
:100380000846006840F08070086000BF454800687B
:1003900000F000700028F9D04248406820F00300C7
:1003A000404948600846406840F00200486000BF8D
:1003B0003C48406800F00C000828F9D10CBD10B58D
:1003C000FFF792FF10BD10B53648006840F00100FD
:1003D000344908600846406834490840314948605B
:1003E00008460068324908402E49086008460068FF
:1003F00020F4802008600846406820F4FE00486031
:100400004FF41F008860FFF7DAFF4FF000602949C2
:10041000086010BD10B5002100200022214B5B6850
:1004200003F00C0121B1042906D0082928D107E0E6
:10043000214B224C236027E01F4B204C236023E0FC
:10044000184B5B6803F47010164B5B6803F4803242
:10045000022303EB904022B9194B4343174C23600E
:100460000DE0104B5B6803F4003323B1144B43439E
:10047000124C236003E0104B4343104C236003E015
:100480000D4B0E4C236000BF00BF064B5B68C3F3EF
:1004900003130C4CE15C094B1B68CB40074C2360F9
:1004A00010BD000000100240002002400000FFF8D4
:1004B000FFFFF6FE08ED00E000127A0018000020B1
:1004C00000093D001C00002008B50121482001F072
:1004D000FFF82020ADF8000010208DF80300032065
:1004E0008DF802006946094800F036FE20210748D1
:1004F00000F0DFFE2020ADF800006946044800F05F
:100500002BFE2021024800F0D4FE08BD000C014063
:100510000018014008B50121442001F0D9F81C2041
:10052000ADF8000048208DF803006946064800F049
:1005300013FE0120ADF8000028208DF80300694665
:10054000024800F009FE08BD001801400008014003
:100550000120FB4908800820488009208880EB2082
:10056000C88042F2F210088145F61A4048817D2089
:1005700088810120F349088500204885012088856D
:10058000C88500200886488601208886C886088796
:1005900000204887704770B502460C46FF25FF23B0
:1005A00009E012F8010B80EA0501E748405C80EAA7
:1005B0000305E648435C2000A4F10106B4B2F0D183
:1005C00043EA052070BD1FB50121202001F08DF800
:1005D000DF48008800EB80004FF6FF7101EA400021
:1005E000ADF8080041F61F40ADF804000020ADF85A
:1005F0000A00ADF8060001A9D64801F0A5FB0122CA
:100600001146D44801F017FF37208DF80000022072
:100610008DF8010003208DF8020001208DF8030001
:10062000684600F0D0FC1FBD00B587B00121242032
:1006300001F04EF80121480401F057F80420ADF80C
:10064000180018208DF81B0003208DF81A0006A949
:10065000C14800F081FD0421BF4800F02AFE0820B7
:10066000ADF8180004208DF81B0006A9BA4800F068
:1006700073FD8020ADF8180010208DF81B0006A92E
:10068000B64800F069FD8021B44800F014FEB4487B
:1006900001F082F8B348006802900020ADF8140021
:1006A000ADF80C00ADF80E000C20ADF81200AE480D
:1006B000007820B1012806D002280ED108E00020E1
:1006C000ADF8100009E04FF4C060ADF8100004E090
:1006D0004FF48060ADF8100000BF00BF02A9A04831
:1006E00001F09DF840F225519D4801F03FFA0122AA
:1006F00040F225519A4801F02AF926208DF804008D
:1007000002208DF805008DF8060001208DF8070005
:1007100001A800F058FC0121914801F00CF90120DA
:1007200092490860FFF74FFF07B000BD1FB50446B0
:100730000121042000F0D9FFADF8084041F61F4028
:10074000ADF804000020ADF80A00ADF8060001A9DC
:10075000874801F0F9FA01224121854801F06BFE3A
:100760001E208DF8000003208DF801008DF8020096
:1007700001208DF80300684600F025FC01217C482B
:1007800001F03EFE1FBD10B50021042000F0ADFFBA
:1007900000224121764801F04EFE0021744801F00C
:1007A0002FFE10BD70B540F225516D4801F0B4F92F
:1007B00050B307216A4801F099F920B101240220C1
:1007C0006C49087000E00024654801F025F9C5B2C5
:1007D0006948008840F2FF71884215DAA4B9674879
:1007E00065490988455464480088401C624908806E
:1007F0000121584802F0DEF80021564802F094F832
:100800000121544801F0FCFD70BD5C4949795B4A07
:10081000127941EA02205A490988884203D100210D
:10082000584A117002E01021564A11700021564AB0
:100830001170704751494979504A127941EA0220B2
:100840003F49524A128831F81210814203D10021E7
:100850004C4A117002E006214A4A117000214A4AAE
:1008600011707047002016E0032101EB4001434A5C
:10087000515C474A22F81010042101EB40013F4A25
:10088000515C434A12F8102001EB0221404A22F841
:100890001010411CC8B21428E6DB411E3C4A12F875
:1008A00011103C4A11700021364A1170364A1170FD
:1008B000704730B538480078012840D12F4800787B
:1008C0003649097888426BD12C484078012817D0E6
:1008D0002A484078022813D02848407803280FD0AF
:1008E0002648407805280BD024484078062807D0B1
:1008F000224840780F2803D02048407810285ED145
:100900001D480088801E81B21C48FFF744FE044643
:1009100019480088401E1949095C17480088801E44
:10092000164A105C41EA0025AC4244D1104640789A
:10093000032836D0062837D010283BD137E084E092
:10094000DC190020441100202E2D00082E2E000856
:100950003200002000140040000801400014014053
:10096000004400402C000020300000209C812242E6
:100970000008004045000020340000207C000020DA
:100980004000002044000020430000203E000020E2
:100990000C12002042000020360000203B00002006
:1009A00048E0FFF75FFF05E0FFF744FF02E0FFF7D5
:1009B0002CFF00BF3EE00E20D64908703AE0D64832
:1009C0004078812817D0D4484078822813D0D24864
:1009D000407883280FD0D048407885280BD0CE4867
:1009E0004078862807D0CC4840788F2803D0CA4862
:1009F000407890281ED1C8488078012806D0022867
:100A000008D003280AD0042810D10BE00B20C149DC
:100A100008700BE00C20BF49087007E00D20BD49AD
:100A2000087003E00E20BB49087000BF00BF002023
:100A3000BA4908700020BA490870BA4908800120F4
:100A4000B94908600020B549087030BD70B504464A
:100A50000D460120B44908600BE000BF8021B34877
:100A600001F044F80028F9D014F8011BAF4800F059
:100A7000CFFF2800A5F10101CDB2EED100BF40218A
:100A8000AA4801F033F80028F9D00120A3490870E2
:100A90000020A549086070BD2DE9F04106460C46CE
:100AA0001746012F1DD1A24806700620A0494870A4
:100AB00020128870CC709F4830F814000012087122
:100AC0009C4810F81400487106219948FFF763FD0F
:100AD0000546280A96498871CD7108219448FFF788
:100AE000B5FFBDE8F0812DE9F04106460C461546FC
:100AF0008F48067003208E49487020128870CC7091
:100B0000281208714D7106218948FFF744FD0746F8
:100B1000380A87498871CF7108218548FFF796FF09
:100B2000BDE8F0812DE9F04107460C4615461E460A
:100B3000032C02D0062C0CD105E03246294638465B
:100B4000FFF7D1FF05E0324629463846FFF7A4FFFC
:100B500000BF00BFBDE8F08110B577480388774833
:100B600002887748017877480078FFF7DBFF10BDEF
:100B700010B57548007830B1012810D002282FD068
:100B8000032835D133E0FFF7E7FF6448007810B160
:100B900001206D49087001206C49087028E0FFF7BA
:100BA00088FE0220694908705A48007818B9022066
:100BB0006549087013E001206349087064480078B3
:100BC000401C6349087008460078022807DB0020B3
:100BD000087002205C49087007204E49087007E041
:100BE00000205949087003205849087000E000BFF0
:100BF00000BF10BD10B50121564801F0CAFE012802
:100C000005D10121534801F0D5FEFFF7B1FF10BD1A
:100C100010B50121504801F0BCFE70B101214E48D1
:100C200001F0C8FE00214C4801F0EAFB01203E49DA
:100C300008603B4908704949087010BD2DE9F04132
:100C400006460C4615463A48067004203849487056
:100C500020128870CC70281208714D71062134481A
:100C6000FFF799FC0746380A31498871CF7108218E
:100C70002F48FFF7EBFEBDE8F0812F4908880028D8
:100C800006DD25490979FF2902D12349497931B186
:100C900048B92149097931B91F49497919B9002160
:100CA0001C4A117002E005211A4A117000211B4AEA
:100CB0001170704718494979174A127941EA0220A0
:100CC0001D490988884203D10021124A117002E0AF
:100CD0000F21104A11700021104A1170704701460F
:100CE0001F4830F81100704701461148405C7047BA
:100CF00001460948405C704700201A490870704757
:100D00000448007870471548007870470F4800780D
:100D100070470000440000207C00002043000020B9
:100D200036000020340000209C8122420044004014
:100D30007C080020DC190020400000203E0000203C
:100D40003C0000203B00002058000020460000200E
:100D50005900002000080040001400404500002019
:100D60000C1200204200002010B56FF0040000F0CB
:100D700074F92E4800682E49B0FBF1F02D49087037
:100D80000846007800EB4001C1EBC0104FF6FF7140
:100D900001EAC0002849088010BD0146254A1278A2
:100DA0004A434FF0E0235A6100229A611A461269C1
:100DB00042F001021A6100BF4FF0E022106900F01A
:100DC00001021AB100F48032002AF5D04FF0E0227F
:100DD000126922F001024FF0E0231A6100229A61A9
:100DE00070470146144A12884A434FF0E0235A6183
:100DF00000229A611A46126942F001021A6100BF8C
:100E00004FF0E022106900F001021AB100F48032C4
:100E1000002AF5D04FF0E022126922F001024FF0D3
:100E2000E0231A6100229A61704700001800002038
:100E300000127A005A0000205C000020014600BF2A
:100E4000704700BF494A128802F04002002AF9D0D8
:100E5000C2B2464B1B1D1A80704710B586B00446BF
:100E6000012144F2040000F033FC4FF40070ADF8AF
:100E7000140003208DF8160018208DF8170005A91E
:100E80003B4800F069F94FF48060ADF8140004208D
:100E90008DF8170005A9364800F05EF925208DF879
:100EA000000003208DF801008DF8020001208DF86C
:100EB0000300684600F087F801940020ADF80800B0
:100EC000ADF80A00ADF80C00ADF810000C20ADF83C
:100ED0000E0001A9254800F0A2FC012240F2255194
:100EE000224800F034FD0121204800F024FD06B026
:100EF00010BD10B540F225511C4800F00DFE10B396
:100F00001A4800F089FDC4B21A48008800F4004075
:100F1000C8B91848008800F4804060B10A2C03D09A
:100F200000201449088020E01248008840F4004066
:100F30001049088019E00D2C06D10E48008840F4B5
:100F400080400C49088010E00A480088C0F30D007A
:100F500009490C5407480088401C06490880084687
:100F60000088C72801DD0020088010BD003801403E
:100F70000008014064000020AC210020094880479F
:100F800009480047FEE7FEE7FEE7FEE7FEE7FEE76B
:100F9000FEE7FEE7FEE7FEE704480549054A064B83
:100FA00070470000C703000831010008D822002064
:100FB000D8280020D8240020D8240020314901431B
:100FC000314A1160704770B5002100230F22C478A8
:100FD00004B32D4C246804F4E064C4F5E064210AF1
:100FE000C1F10403CA40447804FA03F18478144040
:100FF00021430901254C0678A155047804F01F050A
:101000000124AC4005786D11AD0005F1E025C5F86F
:10101000004109E0047804F01F050124AC401C4D98
:101020000678761145F8264070BD1A4A0A400243F8
:10103000154B1B1F1A60704739B1134A121D1268F5
:101040000243114B1B1D1A6006E00F4A121D126865
:1010500082430D4B1B1D1A607047042808D14FF0C6
:10106000E021096941F004014FF0E022116107E03D
:101070004FF0E021096921F004014FF0E0221161F5
:10108000704700000000FA050CED00E000E400E00D
:1010900080E100E080FFFF1F10B50446CC48844289
:1010A00008D10121042000F02DFB0021042000F0D4
:1010B00029FB46E0C748844208D10121082000F0FE
:1010C00021FB0021082000F01DFB3AE0C2488442C9
:1010D00008D10121102000F015FB0021102000F0A4
:1010E00011FB2EE0BD48844208D10121202000F0F0
:1010F00009FB0021202000F005FB22E0B8488442D3
:1011000008D10121402000F0FDFA0021402000F02C
:10111000F9FA16E0B348844208D10121802000F09A
:10112000F1FA0021802000F0EDFA0AE0AE48844296
:1011300007D10121801500F0E5FA0021A01500F08B
:10114000E1FA10BD10B50121084600F0DBFA0021DC
:10115000012000F0D7FA10BD2DE9F041024600252C
:101160000026002000230024002791F803C00CF083
:101170000F0591F803C00CF0100CBCF1000F03D068
:1011800091F802C04CEA050591F800C0BCF1000FCF
:1011900031D0146800202BE04FF0010C0CFA00F362
:1011A000B1F800C00CEA03069E4220D183004FF044
:1011B0000F0C0CFA03F7BC4305FA03FC4CEA0404D9
:1011C00091F803C0BCF1280F06D14FF0010C0CFAC6
:1011D00000FCC2F814C00AE091F803C0BCF1480F4B
:1011E00005D14FF0010C0CFA00FCC2F810C0401CF5
:1011F0000828D1D31460B1F800C0BCF1FF0F34DD72
:10120000546800202EE000F1080C4FF0010808FAA5
:101210000CF3B1F800C00CEA03069E4221D1830012
:101220004FF00F0C0CFA03F7BC4305FA03FC4CEA31
:10123000040491F803C0BCF1280F05D100F1080C9B
:1012400008FA0CF8C2F8148091F803C0BCF1480FFA
:1012500007D100F1080C4FF0010808FA0CF8C2F8A9
:101260001080401C0828CED35460BDE8F0814FF6B2
:10127000FF710180022181700421C1707047024614
:10128000002093680B400BB1012000E00020704764
:101290000146886880B2704702460020D3680B4040
:1012A0000BB1012000E0002070470146C86880B201
:1012B000704701617047416170470AB1016100E008
:1012C00041617047C16070474FF480320A438261C8
:1012D0008161826182698269704702460020434BC6
:1012E00018684FF68073184040EA021008433F4BDD
:1012F000186070473E49C8617047F0B50A46002340
:1013000000240021002500F00046B6F1004F02D174
:10131000364EF16901E0354E7168C0F3034583B282
:1013200000F44016B6F5401F08D121F070612F4E31
:10133000766826F070662D4F7E6012E000F480160D
:10134000B6F5801F06D1032606FA05F4A14341F045
:10135000706106E0460D360103FA06F6B14341F02E
:10136000706122B1460D360103FA06F6314300F0F2
:101370000046B6F1004F02D11C4EF16101E01B4E58
:101380007160F0BD30B500228B071C0F0F2303FAEC
:1013900004F2164B08338C1053F824309343134C4B
:1013A00008348D1044F8253023468C1053F824302F
:1013B0008C07240F00FA04F423430C4C08348D10DE
:1013C00044F8253030BD0A49DC3108607047000020
:1013D00000080140000C01400010014000140140D1
:1013E00000180140001C01400020014000000140A5
:1013F00000002042DF48006840F00100DD4908603D
:1014000008464068DC490840DA49486008460068F8
:10141000DA490840D74908600846006820F480206F
:1014200008600846406820F4FE0048604FF41F0042
:1014300088607047CF49096821F48031CD4A116036
:101440001146096821F480211160B0F5803F03D076
:10145000B0F5802F0ED106E0C649096841F480310D
:10146000C44A116007E0C349096841F4A021C14A98
:10147000116000E000BF00BF704710B501460022B8
:10148000002300204A11012A02D1BA4C236806E049
:10149000022A02D1B74C236A01E0B64C636A01F01C
:1014A0001F02012494401C400CB1012000E00020E8
:1014B00010BD38B5002000900024002500BF312069
:1014C000FFF7DBFF05460098401C00900098B0F540
:1014D000A06F01D0002DF2D03120FFF7CEFF08B170
:1014E000012400E00024204638BD01460020A14A26
:1014F000106820F0F80040EAC10010607047A04971
:1015000008607047024600209A4B586820F47C100F
:1015100042EA01031843974B5860704798490866A0
:10152000704701460020934A506820F003000843AA
:10153000506070478F48406800F00C0070470146CB
:1015400000208C4A506820F0F0000843506070473B
:1015500001460020874A506820F4E060084350604C
:10156000704701460020834A506820F4605040EAEA
:10157000C1005060704729B17E4A527A02437D4BC8
:101580005A7204E07B4A527A82437A4B5A7270470D
:101590007B49D8310860704701460020754A506881
:1015A00020F440400843506070470021714A2032C7
:1015B0001170704A82F82010012802D004280AD144
:1015C00004E001216B4A2032117005E00521694ACF
:1015D0002032117000E000BF00BF70476949086009
:1015E00070476449096A0143624A1162704765495C
:1015F00044390860704730B50021002200240023E0
:101600005C4D6D6805F00C0121B1042905D0082955
:1016100023D105E05C4D056022E05B4D05601FE0D5
:10162000544D6D6805F47012524D6D6805F48034A8
:10163000022505EB92421CB9544D554305600BE061
:101640004C4D6D6805F400351DB1504D5543056096
:1016500002E04D4D5543056002E04B4D056000BF73
:1016600000BF444D6D6805F0F0010909484D6B5C01
:101670000568DD4045603F4D6D6805F4E061090A8D
:10168000434D6B5C4568DD4085603A4D6D6805F4FF
:101690006051C90A3E4D6B5C4568DD40C560354D03
:1016A0006D6805F44041890B3A4D6B5CC568B5FB2C
:1016B000F3F5056130BD29B12E4A526902432D4B25
:1016C0005A6104E02B4A526982432A4B5A6170479F
:1016D00029B1284A92690243264B9A6104E0254ABF
:1016E00092698243234B9A61704729B1214AD2699A
:1016F0000243204BDA6104E01E4AD26982431D4B4B
:10170000DA61704729B11B4AD2680243194BDA608B
:1017100004E0184AD2688243164BDA60704729B158
:10172000144A12690243134B1A6104E0114A126908
:101730008243104B1A617047124940390860704764
:101740000F49C86470470B49C87170470948406A1F
:1017500040F0807007494862704701460020054A02
:1017600092680A400AB1012000E000207047014958
:1017700088727047001002400000FFF8FFFFF6FE7D
:10178000000042428004424200127A0000093D00FB
:10179000660000207600002010B50446FB48844215
:1017A00009D101218803FFF7ADFF00214FF48040EC
:1017B000FFF7A8FF32E0F648844209D1012148042E
:1017C000FFF7ADFF00214FF40030FFF7A8FF25E041
:1017D000F048844209D101218804FFF7A0FF0021CD
:1017E0004FF48020FFF79BFF18E0EB48844209D1BB
:1017F0000121C804FFF793FF00214FF40020FFF7F9
:101800008EFF0BE0E548844208D101210805FFF76F
:1018100086FF00214FF48010FFF781FF10BD2DE9F6
:10182000F04786B005460E460024A24600BFA146FA
:101830000027B08900B100BF2F462C8A4CF6FF70FC
:101840000440F08804432C82AC894EF6F310044027
:10185000B08831890843718908430443AC81AC8A5C
:101860004FF6FF400440B0890443AC8201A8FFF763
:10187000C2FEC648874202D1DDF810A001E0DDF8C3
:101880000CA0A88900F4004040B10AEBCA0000EBAC
:101890000A1031684900B0FBF1F807E00AEBCA0012
:1018A00000EB0A1031688900B0FBF1F86420B8FB46
:1018B000F0F004012009642101FB1089A88900F4DB
:1018C000004040B1322000EBC900B0FBF1F000F065
:1018D0000700044308E0322000EB09106421B0FB4C
:1018E000F1F000F00F0004432C8106B0BDE8F08752
:1018F0004FF41651016000218180C18001810C21CB
:10190000418100218181704710B502460020108A74
:101910004FF2FF0318400B884C8823438C882343E5
:10192000CC8823431843108210BD002101804180E0
:101930008180C180704721B1828942F40052828146
:1019400004E082894DF6FF731A4082817047F0B53A
:101950000346002400260025002040F66A17B942FD
:1019600000D100BF1846C1F3421401F01F06012741
:1019700007FA06F5012C01D10C3004E0022C01D14C
:10198000103000E014301AB107682F43076002E0FE
:101990000768AF430760F0BD1AB1838A0B438382A7
:1019A00002E0838A8B4383827047028A4FF6F0738A
:1019B0001A400282028A0A430282704782894FF2E9
:1019C000FF731A40828182890A438281704721B164
:1019D000828942F00202828104E082894FF6FD731F
:1019E0001A4082817047028A4FF6DF731A400282E2
:1019F000028A0A430282704721B1028A42F480427D
:101A0000028204E0028A4BF6FF731A40028270479A
:101A1000C1F308028280704701468888C0F308003D
:101A20007047818941F0010181817047028BD2B2F8
:101A30000283028B42EA012202837047028B02F486
:101A40007F420283028B0A430283704721B1828A5C
:101A500042F02002828204E0828A4FF6DF731A404D
:101A60008282704721B1828A42F01002828204E0B1
:101A7000828A4FF6EF731A408282704721B1828AC0
:101A800042F00802828204E0828A4FF6F7731A401D
:101A90008282704721B1828942F40042828103E050
:101AA0008289C2F30E028281704721B1828A42F498
:101AB0000062828204E0828A4FF2FF731A408282BF
:101AC0007047828A4FF6FB731A408282828A0A43E9
:101AD0008282704721B1828A42F00202828204E04F
:101AE000828A4FF6FD731A408282704702460020B8
:101AF000B1F5007F00D100BF13880B400BB101206E
:101B000000E00020704701F40072B2F5007F00D1C0
:101B100000BFCA430280704770B50246002400230C
:101B20000025002040F66A16B14200D100BFC1F383
:101B3000421501F01F03012606FA03F3012D02D11D
:101B40009689334006E0022D02D1168A334001E027
:101B5000968A33400C12012606FA04F416883440A3
:101B600013B10CB1012000E0002070BD10B50022BF
:101B7000002340F66A14A14200D100BF0A120124DA
:101B80009440A3B2DC43048010BD00000038014043
:101B90000044004000480040004C0040005000401D
:101BA00010B50446FE48844208D10121C014FFF755
:101BB000A9FD0021E014FFF7A5FDC4E0B4F1804FBA
:101BC00008D101210846FFF7AAFD00210120FFF7F7
:101BD000A6FDB8E0F348844208D101210220FFF7B6
:101BE0009EFD00210220FFF79AFDACE0EE48844202
:101BF00008D101210420FFF792FD00210420FFF706
:101C00008EFDA0E0E948844208D101210820FFF7B9
:101C100086FD00210820FFF782FD94E0E44884421D
:101C200008D101211020FFF77AFD00211020FFF7D5
:101C300076FD88E0DF48844208D101212020FFF7AB
:101C40006EFD00212020FFF76AFD7CE0DA48844227
:101C500008D101214014FFF755FD00216014FFF762
:101C600051FD70E0D548844209D10121C804FFF735
:101C700049FD00214FF40020FFF744FD63E0D04808
:101C8000844209D101210805FFF73CFD00214FF4F2
:101C90008010FFF737FD56E0CA48844209D1012180
:101CA0004805FFF72FFD00214FF40010FFF72AFD34
:101CB00049E0C548844208D101214020FFF72FFDAB
:101CC00000214020FFF72BFD3DE0C048844208D1B1
:101CD00001218020FFF723FD00218020FFF71FFD59
:101CE00031E0BB48844208D101218015FFF717FD80
:101CF0000021A015FFF713FD25E0B648844209D165
:101D000001210804FFF7FEFC00214FF48030FFF7AB
:101D1000F9FC18E0B048844209D101214804FFF7DA
:101D2000F1FC00214FF40030FFF7ECFC0BE0AB4876
:101D3000844208D101218804FFF7E4FC00214FF41C
:101D40008020FFF7DFFC10BD00220288944B9842F0
:101D50000ED0994B98420BD0B0F1804F08D0914BE8
:101D6000984205D0904B984202D0904B984204D1B3
:101D70004FF68F731A404B881A438D4B984207D009
:101D80008C4B984204D04FF6FF431A40CB881A433D
:101D900002808B8883850B880385814B98420BD00A
:101DA000854B984208D08B4B984205D08A4B98427D
:101DB00002D08A4B984201D10B7A03860123838299
:101DC000704770B5002400220023058C4FF6FE7684
:101DD00035400584028C8388048B4FF68F752C4028
:101DE000B51E2C400D882C43751E2A400D892A43B0
:101DF0004D882A436A4DA8420BD06F4DA84208D0A7
:101E0000744DA84205D0744DA84202D0734DA8422B
:101E100013D14FF6F7752A404D892A434FF6FB75CB
:101E20002A408D882A434FF6FF652B404FF6FF5519
:101E30002B408D892B43CD892B4383800483CD8810
:101E40008586028470BD70B5002400220023058CB5
:101E50004FF6EF7635400584028C8388048B48F674
:101E6000FF752C404FF6FF452C400D884FF6FF764E
:101E700006EA05252C434FF6DF752A400D8906EA50
:101E800005152A434D8806EA05152A43444DA84204
:101E900002D0494DA8421DD14FF67F752A404D8989
:101EA0004FF6FF7606EA05152A434FF6BF752A401E
:101EB0008D8806EA05152A434FF6FF352B404FF271
:101EC000FF752B408D8906EA85052B43CD8906EAEF
:101ED00085052B4383800483CD880587028470BDEC
:101EE00070B5002400220023058C4FF6FF663540B4
:101EF0000584028C8388848B4FF68F752C404FF6B7
:101F0000FC752C400D882C434FF6FF552A400D8957
:101F10004FF6FF7606EA05252A434D8806EA052591
:101F20002A431F4DA84202D0234DA8421DD14FF293
:101F3000FF752A404D894FF6FF7606EA05252A43AC
:101F40004FF6FF352A408D8806EA05252A434EF6CE
:101F5000FF752B404DF6FF752B408D8906EA051560
:101F60002B43CD8906EA05152B4383808483CD88D6
:101F70008587028470BD70B5002200230024058C83
:101F80004EF6FF7635400584038C8488828B48F6B4
:101F9000FF752A404FF6FF452A400D8820E00000DB
:101FA000002C01400004004000080040000C0040EC
:101FB000001000400014004000340140004C01407B
:101FC000005001400054014000180040001C004037
:101FD0000020004000400140004401400048014012
:101FE0004FF6FF7606EA05252A434DF6FF752B408E
:101FF0000D8906EA05352B434D8806EA05352B4346
:10200000FA4DA84202D0FA4DA84208D14BF6FF750E
:102010002C408D894FF6FF7606EA85152C43848087
:102020008283CD88A0F84050038470BD828B4FF22C
:10203000FF331A408283828B4FF6FF7303EA01233A
:102040001A4382837047F0B50C46154600220021E2
:102050000026078C4EF6FF7C07EA0C070784828B6C
:10206000018C4FF6FF7707EA043640F6FF473A4007
:102070004FF6FF7707EA05273A434FF6FF7707EA5F
:1020800003373A43D94FB8420ED0D94FB8420BD09C
:10209000B0F1804F08D0D74FB84205D0D64FB842E4
:1020A00002D0D64FB84206D14DF6FF77394046F4FC
:1020B0008057394305E047F6FF57394044F48057CD
:1020C000394382830184F0BD828B4FF6F3731A404B
:1020D0008283828B0A4382837047F0B50C46154693
:1020E000002200210026078C4FF6FF6C07EA0C0740
:1020F0000784828B018C4FF6FF7707EA04264FF6A0
:102100000C773A404FF6FF7707EA03172F433A431D
:10211000B64FB8420ED0B64FB8420BD0B0F1804F98
:1021200008D0B44FB84205D0B34FB84202D0B34F35
:10213000B84206D14FF6FF57394046F4807739430D
:1021400005E04FF2FF57394044F4807739438283EA
:102150000184F0BD028B4FF2FF331A400283028BE1
:102160004FF6FF7303EA01231A4302837047F0B569
:102170000C461546002200210026078C4FF6EF7C06
:1021800007EA0C070784028B018C4FF6FF7707EAFA
:10219000041640F6FF473A404FF6FF7707EA033749
:1021A0003A434FF6FF7707EA05273A438F4FB84285
:1021B0000ED08F4FB8420BD0B0F1804F08D08D4F6A
:1021C000B84205D08C4FB84202D08C4FB84206D1ED
:1021D0004FF6DF77394046F01007394305E04FF6F8
:1021E0005F77394044F01007394302830184F0BD22
:1021F000028B4FF6F3731A400283028B0A43028369
:102200007047F0B50C46154600220021068C4FF6AB
:10221000FE773E400684028B018C4FF60C763240EE
:102220007E1C06EA03162E433243704EB0420ED097
:102230006F4EB0420BD0B0F1804F08D06D4EB0421F
:1022400005D06D4EB04202D06C4EB04206D14FF672
:10225000FD76314044F00106314305E04FF6F57656
:10226000314044F00106314302830184F0BD70B572
:1022700005460C465D4885420ED05D4885420BD030
:10228000B5F1804F08D05B48854205D05A48854259
:1022900002D05A48854200D100E000BF208850B9E2
:1022A0002389A28861882846FFF7ABFFE18828468A
:1022B000FFF79EFF25E0208804280AD12389A28801
:1022C00061882846FFF753FFE1882846FFF742FF61
:1022D00017E0208808280AD12389A2886188284627
:1022E000FFF7FBFEE1882846FFF7EEFE09E02389B1
:1022F000A28861882846FFF7A6FEE1882846FFF7F6
:1023000095FE70BD2DE9F04105460C4600260127DB
:10231000608808B9022600E00026A088012801D1C3
:10232000022700E001272088A0B92389A2886188BC
:102330002846FFF766FFE1882846FFF759FF238903
:102340003A4631462846FFF712FFE1882846FFF754
:1023500001FF13E02389A28861882846FFF707FF61
:10236000E1882846FFF7F6FE23893A46314628469B
:10237000FFF747FFE1882846FFF73AFFBDE8F08105
:102380000A884B881A438B881A43CB881A430B89D7
:102390001A434B891A438B891A43A0F8442070478B
:1023A0004FF6FF71818000210180C1804180017260
:1023B00070470021018041808180C180018141817D
:1023C0008181C1817047002101804180012181808C
:1023D0000021C180018170470021018041808180FE
:1023E000C18001814181818170470000002C014042
:1023F000003401400004004000080040000C004090
:1024000021B1028842F00102028004E002884FF606
:10241000FE731A400280704731B1B0F8442042F494
:102420000042A0F8442005E0B0F84420C2F30E02B8
:10243000A0F8442070471AB183890B43838102E0DE
:1024400083898B43838170478182704741EA02030D
:10245000A0F8483070471AB183890B43838102E0AA
:1024600083898B438381704701894FF6F87211404D
:10247000018170470A46002101894FF68F73194088
:1024800011430181704730B504460D462946204668
:10249000FFF7F0FF208940F00700208130BD2DE9D3
:1024A000F04104460D4616461F46602D06D13B46B8
:1024B000012231462046FFF75AFE05E03B46012245
:1024C00031462046FFF79DFE29462046FFF7D2FF02
:1024D000208940F007002081BDE8F08130B50C462E
:1024E00000210189C9B24FF6FF7505EA032515439E
:1024F00025432943018130BD2DE9F04105460E46B3
:1025000017469846002443463A4631462846FFF788
:10251000E5FF2C894FF6F870044044F007044FF6AD
:102520008F70044044F070042C81BDE8F081F0B558
:1025300004460D4616461F463B463246294620466F
:10254000FFF7CCFF208940F480402081F0BD018559
:10255000828270470A46002101884FF68F73194026
:10256000114301807047F0B50C4615461E46002108
:10257000002200230189028B038C4FF6F877394043
:1025800021434FF6FC473A4040F201173A434FF6D9
:10259000DD773B404FF6FF7707EA06172F433B43B3
:1025A000018102830384F0BD0A460021018B4FF6AE
:1025B0008F7319401143018370470A460021018B34
:1025C00048F6FF7319404FF6FF7303EA02231943DD
:1025D000018370470A460021818B4FF68F731940A3
:1025E0001143818370470A460021818B48F6FF73AF
:1025F00019404FF6FF7303EA0223194381837047A2
:1026000021B1028842F08002028004E002884FF685
:102610007F731A400280704721B1828842F0040221
:10262000828004E082884FF6FB731A4082807047F4
:1026300021B1828842F00802828004E082884FF64D
:10264000F7731A408280704721B1828842F00102FC
:10265000828004E082884FF6FE731A4082807047C1
:102660000A460021018B4FF6F7731940114301838D
:1026700070470A460021018B4FF2FF7319404FF655
:10268000FF7303EA02231943018370470A460021BE
:10269000818B4FF6F77319401143818370470A46C7
:1026A0000021818B4FF2FF7319404FF6FF7303EA4D
:1026B00002231943818370470A460021018B4FF69C
:1026C000FB7319401143018370470A460021018BB7
:1026D0004FF6FF3319404FF6FF7303EA0223194305
:1026E000018370470A460021818B4FF6FB73194026
:1026F0001143818370470A460021818B4FF6FF33D7
:1027000019404FF6FF7303EA022319438183704790
:102710000A460021018B4FF67F7319401143018354
:1027200070470A460021018BC1F30E014FF6FF737B
:1027300003EA02231943018370470A460021818B73
:102740004FF67F7319401143818370470A46002179
:10275000818BC1F30E014FF6FF7303EA0223194385
:10276000818370470A460021018C4FF6FD731940A2
:102770001143018470470A460021018C4FF6F7731C
:1027800019401143018470470A460021018C4FF61D
:10279000DF7319404FF6FF7303EA021319430184F4
:1027A00070470A460021018C4FF67F7319404FF69F
:1027B000FF7303EA02131943018470470A4600219C
:1027C000018C4FF6FF5319404FF6FF7303EA0223C3
:1027D0001943018470470A460021018C4FF2FF73B0
:1027E00019404FF6FF7303EA02231943018470472F
:1027F0000A460021018C4DF6FF7319404FF6FF7316
:1028000003EA023319430184704730B500230124E1
:102810008C40A3B2048C9C430484048C02FA01F51E
:10282000ADB22C43048430BD30B5002304248C4069
:10283000A3B2048C9C430484048C02FA01F5ADB26B
:102840002C43048430BD70B5034600200024184694
:10285000183001258D40ACB21D8CA5431D8409B1F3
:10286000082909D100EB6100056825F070050560B5
:102870000568154305600EE00D1FC5F34E0528449D
:10288000056825F4E045056005684FF6FF7606EA21
:1028900002263543056070BD21B1028842F0020274
:1028A000028004E002884FF6FD731A4002807047F0
:1028B00021B1028842F00402028004E002884FF64F
:1028C000FB731A400280704721B1828842F0800277
:1028D000828004E082884FF67F731A4082807047BE
:1028E00002884FF6F7731A40028002880A4302807A
:1028F000704782884FF68F731A40828082880A431D
:102900008280704702894FF6F8731A40028102896B
:102910000A430281704702894FF67F731A40028191
:1029200002890A430281704781847047818570471C
:10293000818670470187704781877047A0F84010F3
:10294000704702884FF6FF431A40028002880A430C
:10295000028070470146888E70470146088F704795
:102960000146888F70470146B1F840007047014624
:10297000888C70470146088D704702460020138AF4
:102980000B400BB1012000E000207047CA430282D7
:10299000704730B50246002000230024158A05EA5E
:1029A0000103958905EA010413B10CB1012000E08F
:1029B000002030BDCA430282704770470FB40449FB
:1029C00010B503AA029800F04DF910BC5DF814FB95
:1029D0006000002070B5044685690068C10601D515
:1029E000302600E02026C00707D070BDD4E90121C1
:1029F00030469047206A401C20626D1EF6D570BD9F
:102A000070B5044685690078C00707D170BDD4E968
:102A1000012120209047206A401C20626D1EF6D5BF
:102A200070BD00002DE9F0410646002410687529AC
:102A3000314616A510D0AFF30080002802DA4042DC
:102A400013A507E031688A0701D512A502E04907FE
:102A500004D511A5012401E0AFF3008000210A2272
:102A600006F1240709E0B0FBF2FCB0FBF2F302FB35
:102A70001C00303078541846491C0028F3D12346F6
:102A80002A463046BDE8F04100F093B8000000004F
:102A90002D0000002B000000200000002DE9F04771
:102AA0004FF0000A89460446C0F820A02046E1689D
:102AB0008847002876D0252806D0D4E90121904700
:102AC000206A401C2062F1E7E16820460025884723
:102AD000C4F81CA006460027C4F818A02A2E09D066
:102AE000304600F01DF938B304EB8708303EC8F8D3
:102AF000186019E059F8041B204604EB8702916125
:102B0000E1688847012F064618D1E069002820DADD
:102B100025F020051DE0D8F8180000EB800006EB3A
:102B200040003038C8F818002046E168884706465B
:102B300000F0F6F80028EED1012F0AD02E2E08D191
:102B40002046E16888477F1C0646022F45F0200595
:102B5000C4DBA069002803DA404245F00105A0610A
:102B6000E80701D025F01005B6B1A6F141001928FB
:102B700002D8203645F400654A4631462046256095
:102B80004D46FDF70FFB58B1012806D0ED1D25F08D
:102B9000070000F1080989E704E005F1040985E769
:102BA00030468AE7206ABDE8F08770477047704773
:102BB00070472DE9F0470D4699469246044600F1CC
:102BC00024080168880604D5E06921F0100121601D
:102BD00000E00120A84201DD471B00E00027A169B9
:102BE0007A1902EB0900081AA0612078C00602D405
:102BF0002046FFF7EFFE002608E0D4E901211AF88D
:102C000006009047206A401C761C20624E45F4DB8B
:102C10002078C0060AD52046FFF7DCFE06E0D4E99E
:102C2000012130209047206A401C2062381EA7F105
:102C30000107F4DC07E0D4E9012118F8050090470A
:102C4000206A401C2062281EA5F10105F3DC204605
:102C5000FFF7D6FE2078000602D50220BDE8F087F7
:102C60000120FBE7074B70B50D467B4400F011F8DF
:102C70000446284600F020F810B14FF0FF3070BD38
:102C8000204670BDD5E1FFFF01694A1C026108784A
:102C9000704700B58FB0CDE901310021059105499C
:102CA0007944CDE9031011466846FFF7F7FE0FB0EF
:102CB00000BD0000E5FFFFFF007B00F080007047D3
:102CC000754600F029F8AE4605006946534620F0E7
:102CD0000700854618B020B5FEF75EF9BDE8204034
:102CE0004FF000064FF000074FF000084FF0000BC8
:102CF00021F00701AC46ACE8C009ACE8C009ACE87B
:102D0000C009ACE8C0098D4670470446AFF30080A7
:102D10002046FDF759FA0000004870477422002051
:102D200030380A2801D2012070470020704700C1C6
:102D3000814001C0804101C0804100C1814001C08B
:102D4000804100C1814000C1814001C0804101C07B
:102D5000804100C1814000C1814001C0804100C16B
:102D6000814001C0804101C0804100C1814001C05B
:102D7000804100C1814000C1814001C0804100C14B
:102D8000814001C0804101C0804100C1814000C13B
:102D9000814001C0804101C0804100C1814001C02B
:102DA000804100C1814000C1814001C0804101C01B
:102DB000804100C1814000C1814001C0804100C10B
:102DC000814001C0804101C0804100C1814000C1FB
:102DD000814001C0804101C0804100C1814001C0EB
:102DE000804100C1814000C1814001C0804100C1DB
:102DF000814001C0804101C0804100C1814001C0CB
:102E0000804100C1814000C1814001C0804101C0BA
:102E1000804100C1814000C1814001C0804100C1AA
:102E2000814001C0804101C0804100C1814000C09B
:102E3000C101C30302C2C60607C705C5C404CC0C42
:102E40000DCD0FCFCE0E0ACACB0BC90908C8D818B2
:102E500019D91BDBDA1A1EDEDF1FDD1D1CDC14D4C2
:102E6000D515D71716D6D21213D311D1D010F030F2
:102E700031F133F3F23236F6F737F53534F43CFC02
:102E8000FD3DFF3F3EFEFA3A3BFB39F9F83828E8B2
:102E9000E929EB2B2AEAEE2E2FEF2DEDEC2CE42482
:102EA00025E527E7E62622E2E323E12120E0A060F2
:102EB00061A163A3A26266A6A767A56564A46CACC2
:102EC000AD6DAF6F6EAEAA6A6BAB69A9A86878B832
:102ED000B979BB7B7ABABE7E7FBF7DBDBC7CB47442
:102EE00075B577B7B67672B2B373B17170B05090F2
:102EF00091519353529296565797559594549C5C82
:102F00005D9D5F9F9E5E5A9A9B5B99595898884831
:102F100049894B8B8A4A4E8E8F4F8D4D4C8C448401
:102F20008545874746868242438341818040000031
:102F3000502F0008000000207C0000006C010008F9
:102F4000CC2F00087C0000205C28000088010008CD
:102F50000000000000000000000000000000000071
:102F6000000000000000000000A24A040000000071
:102F70000000000001020304060708098025000084
:102F80000000040000000000000000010300010038
:102F90000100000008000000B1040000EA03000086
:102FA000FF0800000C2000000000000000000000EE
:102FB0000000000000000000000001020304010204
:0C2FC000030406070809020406080000CC
:0400000508000131BD
:00000001FF
