:020000040800F2
:1000000048070020CD0100087904000825040008F5
:10001000750400087502000893090008000000003C
:10002000000000000000000000000000D5040008EF
:10003000790200080000000091040008E9050008AA
:10004000E7010008E7010008E7010008E7010008F0
:10005000E7010008E7010008E7010008E7010008E0
:10006000E7010008E7010008E7010008E7010008D0
:10007000E7010008E7010008E7010008E7010008C0
:10008000E7010008E7010008E7010008E7010008B0
:10009000E7010008E7010008E7010008E7010008A0
:1000A000E7010008E7010008E7010008E701000890
:1000B000E70100084D060008E7010008E701000815
:1000C000E7010008E7010008E7010008E701000870
:1000D000E7010008AD080008E7010008E701000893
:1000E000E7010008E7010008E7010008E701000850
:1000F000E7010008E7010008E7010008E701000840
:10010000E7010008E7010008E7010008E70100082F
:10011000E7010008E7010008E7010008E70100081F
:10012000E7010008E7010008E7010008E70100080F
:1001300000F002F800F03AF80AA090E8000C8244BF
:100140008344AAF10107DA4501D100F02FF8AFF29C
:10015000090EBAE80F0013F0010F18BFFB1A43F0A5
:10016000010318471409000034090000103A24BFA5
:1001700078C878C1FAD8520724BF30C830C144BF0C
:1001800004680C607047000000230024002500264E
:10019000103A28BF78C1FBD8520728BF30C148BFEA
:1001A0000B6070471FB51FBD10B510BD00F033F8D0
:1001B0001146FFF7F7FF00F039FC00F051F803B4E7
:1001C000FFF7F2FF03BC00F0E6FB000009488047A0
:1001D00009480047FEE7FEE7FEE7FEE7FEE7FEE729
:1001E000FEE7FEE7FEE7FEE704480549054A064B41
:1001F00070470000ED0500083101000848010020AB
:10020000480700204803002048030020704770473B
:10021000704770477047754600F028F8AE460500F5
:100220006946534620F00700854618B020B5FFF711
:10023000DBFFBDE820404FF000064FF000074FF015
:1002400000084FF0000B21F00701AC46ACE8C009F4
:10025000ACE8C009ACE8C009ACE8C0098D467047FD
:100260000446AFF300802046FFF7A9FF004870471F
:10027000E800002000BFFEE770472DE9F04102468C
:1002800000250026002000230024002791F803C049
:100290000CF00F0591F803C00CF0100CBCF1000F2E
:1002A00003D091F802C04CEA050591F800C0BCF1FA
:1002B000000F31D0146800202BE04FF0010C0CFA35
:1002C00000F3B1F800C00CEA03069E4220D183007F
:1002D0004FF00F0C0CFA03F7BC4305FA03FC4CEA91
:1002E000040491F803C0BCF1280F06D14FF0010CB3
:1002F0000CFA00FCC2F814C00AE091F803C0BCF18B
:10030000480F05D14FF0010C0CFA00FCC2F810C0E8
:10031000401C0828D1D31460B1F800C0BCF1FF0F15
:1003200034DD546800202EE000F1080C4FF0010885
:1003300008FA0CF3B1F800C00CEA03069E4221D182
:1003400083004FF00F0C0CFA03F7BC4305FA03FCD3
:100350004CEA040491F803C0BCF1280F05D100F168
:10036000080C08FA0CF8C2F8148091F803C0BCF12C
:10037000480F07D100F1080C4FF0010808FA0CF8FB
:10038000C2F81080401C0828CED35460BDE8F0812C
:10039000F0B50A46002300240021002500F00046A5
:1003A000B6F1004F02D11D4EF16901E01B4E71689C
:1003B000C0F3034583B200F44016B6F5401F08D1E0
:1003C00021F07061154E766826F07066134F7E60DE
:1003D00012E000F48016B6F5801F06D1032606FA57
:1003E00005F4A14341F0706106E0460D360103FAC1
:1003F00006F6B14341F0706122B1460D360103FAB1
:1004000006F6314300F00046B6F1004F02D1034E2C
:10041000F16101E0014E7160F0BD0000000001409B
:100420000161704700BFFEE708B50121482000F0D8
:1004300041F82020ADF8000010208DF803000320C3
:100440008DF8020069460948FFF717FF2021074889
:10045000FFF7E6FF2020ADF8000069460448FFF7EB
:100460000CFF20210248FFF7DBFF08BD000C014014
:100470000018014000BFFEE7704700000249014339
:10048000024A1160704700000000FA050CED00E020
:100490007047000029B1064AD2690243044BDA6171
:1004A00004E0034AD2698243014BDA6170470000DD
:1004B0000010024029B1064A92690243044B9A6136
:1004C00004E0034A92698243014B9A61704700003D
:1004D00000100240704710B500F002F810BD000097
:1004E0000CB50020019000903348006840F4803043
:1004F0003149086000BF3048006800F400300090C7
:100500000198401C0190009818B90198B0F5A06FAF
:10051000F1D12948006800F4003010B101200090AA
:1005200001E0002000900098012843D12348006892
:1005300040F01000214908600846006820F00300E0
:1005400008600846006840F0020008601A484068E9
:10055000194948600846406848600846406840F4C9
:10056000806048600846406820F47C104860084677
:10057000406840F4E81048600846006840F0807029
:10058000086000BF0C48006800F000700028F9D037
:100590000948406820F00300074948600846406861
:1005A00040F00200486000BF0348406800F00C00C3
:1005B0000828F9D10CBD00000010024000200240C4
:1005C000042808D14FF0E021096941F004014FF0FF
:1005D000E022116107E04FF0E021096921F00401F8
:1005E0004FF0E022116170477047000010B51348CA
:1005F000006840F001001149086008464068104951
:1006000008400E494860084600680E4908400B49FA
:1006100008600846006820F48020086008464068AA
:1006200020F4FE0048604FF41F008860FFF753FF7E
:100630004FF000600449086010BD00000010024047
:100640000000FFF8FFFFF6FE08ED00E010B5012105
:10065000084800F06AF858B10121064800F056F841
:100660000548006808B9012000E000200249086040
:1006700010BD0000000400409401234230B589B051
:1006800004460D4601210220FFF704FF0121092045
:10069000FFF710FF2020ADF8200018208DF8230070
:1006A00003208DF8220008A91548FFF7E6FD012177
:1006B0001448FFF76DFEADF81450ADF81840002057
:1006C000ADF81A00ADF8160005A90F4800F09CF827
:1006D0007020ADF804000020ADF80E000120ADF848
:1006E000060001A9084800F03BF80821064800F080
:1006F0002DF80121044800F00CF809B030BD0000CD
:10070000000C014000081A0000040040CA430282A5
:10071000704721B1028842F00102028004E00288A1
:100720004FF6FE731A400280704730B50246002033
:1007300000230024158A05EA0103958905EA0104CE
:1007400013B10CB1012000E0002030BD0A460021A9
:10075000018B4FF6F7731940114301837047000076
:1007600070B5002400220023058C4FF6EF7635404B
:100770000584028C8388048B48F6FF752C404FF665
:10078000FF452C400D884FF6FF7606EA05252C43E1
:100790004FF6DF752A400D8906EA05152A434D8874
:1007A00006EA05152A43154DA84202D0144DA84269
:1007B0001DD14FF67F752A404D894FF6FF7606EA28
:1007C00005152A434FF6BF752A408D8806EA0515A0
:1007D0002A434FF6FF352B404FF2FF752B408D8992
:1007E00006EA85052B43CD8906EA85052B438380E0
:1007F0000483CD880587028470BD0000002C014071
:100800000034014001877047002202881D4B984246
:100810000ED01D4B98420BD0B0F1804F08D01B4B2F
:10082000984205D01A4B984202D01A4B984204D1F4
:100830004FF68F731A404B881A43174B984207D0D4
:10084000164B984204D04FF6FF431A40CB881A4308
:1008500002808B8883850B8803850A4B98420BD0D6
:10086000094B984208D00E4B984205D00D4B984248
:1008700002D00D4B984201D10B7A0386012383826B
:1008800070470000002C014000340140000400408B
:1008900000080040000C0040001000400014004020
:1008A00000400140004401400048014010B540F2C2
:1008B00025511D4800F03EF810B31B4800F064F8C5
:1008C000C4B21A48008800F40040C8B9174800882C
:1008D00000F4804060B10A2C03D000201349088046
:1008E00020E01248008840F400401049088019E0D8
:1008F0000D2C06D10D48008840F480400B4908803B
:1009000010E00A480088C0F30D0009490C5407485C
:100910000088401C0549088008460088C72801DD7A
:100920000020088010BD0000003801401C0000209D
:100930002000002070B5024600240023002500207E
:1009400040F66A16B14200D100BFC1F3421501F072
:100950001F03012606FA03F3012D02D196893340C5
:1009600006E0022D02D1168A334001E0968A334018
:100970000C12012606FA04F41688344013B10CB1A7
:10098000012000E0002070BD01468888C0F3080007
:10099000704700BFFEE700BF7047000010B56FF062
:1009A0000400FFF70DFE0A4800680A49B0FBF1F0A9
:1009B000094908700846007800EB4001C1EBC010FF
:1009C0004FF6FF7101EAC0000449088010BD000025
:1009D0000000002000127A00140000201600002001
:1009E0000146114A12884A434FF0E0235A6100221F
:1009F0009A611A46126942F001021A6100BF4FF073
:100A0000E022106900F001021AB100F48032002ADD
:100A1000F5D04FF0E022126922F001024FF0E023FE
:100A20001A6100229A6170471600002000240125F7
:100A3000FFF7B4FF4FF4A060FFF720FDFFF7F4FCD1
:100A4000002140F28330FFF719FE12E00A20FFF781
:100A5000C7FF15B1601C84B201E0601E84B2B4F51A
:100A6000967F00DD002504B9012521460148FFF7E6
:100A7000C9FEEBE700040040980A000800000020CF
:100A8000200000006C010008B80A000820000020C7
:100A9000280700008801000800A24A0400000000A6
:100AA000000000000102030406070809000000001E
:080AB00000000000000000003E
:04000005080001CD21
:00000001FF
